{
  "contractName": "EtherPowerBallBase",
  "abi": [
    {
      "constant": true,
      "inputs": [],
      "name": "cuponPrice",
      "outputs": [
        {
          "name": "",
          "type": "uint256"
        }
      ],
      "payable": false,
      "stateMutability": "view",
      "type": "function"
    },
    {
      "constant": true,
      "inputs": [],
      "name": "cuponsSold",
      "outputs": [
        {
          "name": "",
          "type": "uint256"
        }
      ],
      "payable": false,
      "stateMutability": "view",
      "type": "function"
    },
    {
      "inputs": [
        {
          "name": "_cuponPrice",
          "type": "uint256"
        }
      ],
      "payable": false,
      "stateMutability": "nonpayable",
      "type": "constructor"
    },
    {
      "anonymous": false,
      "inputs": [
        {
          "indexed": false,
          "name": "_buyer",
          "type": "address"
        },
        {
          "indexed": false,
          "name": "_amount",
          "type": "uint256"
        }
      ],
      "name": "Sell",
      "type": "event"
    },
    {
      "constant": false,
      "inputs": [
        {
          "name": "_numberOfCupons",
          "type": "uint256"
        }
      ],
      "name": "buyCupons",
      "outputs": [],
      "payable": true,
      "stateMutability": "payable",
      "type": "function"
    }
  ],
  "bytecode": "0x608060405234801561001057600080fd5b5060405160208061030883398101806040528101908080519060200190929190505050336000806101000a81548173ffffffffffffffffffffffffffffffffffffffff021916908373ffffffffffffffffffffffffffffffffffffffff160217905550806001819055505061027e8061008a6000396000f300608060405260043610610057576000357c0100000000000000000000000000000000000000000000000000000000900463ffffffff168063939b9b0d1461005c578063ee26c6021461007c578063f9f52f64146100a7575b600080fd5b61007a600480360381019080803590602001909291905050506100d2565b005b34801561008857600080fd5b506100916101ad565b6040518082815260200191505060405180910390f35b3480156100b357600080fd5b506100bc6101b3565b6040518082815260200191505060405180910390f35b6100de816001546101b9565b3414151561012f576040517f08c379a0000000000000000000000000000000000000000000000000000000008152600401808060200182810382526000815260200160200191505060405180910390fd5b806002600082825401925050819055507f5e5e995ce3133561afceaa51a9a154d5db228cd7525d34df5185582c18d3df093382604051808373ffffffffffffffffffffffffffffffffffffffff1673ffffffffffffffffffffffffffffffffffffffff1681526020018281526020019250505060405180910390a150565b60015481565b60025481565b6000808214806101d8575082828385029250828115156101d557fe5b04145b151561024c576040517f08c379a00000000000000000000000000000000000000000000000000000000081526004018080602001828103825260178152602001807f496e76616c6964206d756c7469706c7920706172616d7300000000000000000081525060200191505060405180910390fd5b929150505600a165627a7a7230582086eb603718a5b27273f695b48757ac33a409c767824546a158f00baf7013e6a20029",
  "source": "pragma solidity ^0.4.23;\r\n\r\ncontract EtherPowerBallBase {\r\n    address admin;\r\n    uint256 public cuponPrice;\r\n    uint256 public cuponsSold;\r\n\r\n    event Sell(address _buyer, uint256 _amount);\r\n\r\n    constructor(uint256 _cuponPrice) public {\r\n        admin = msg.sender;\r\n        cuponPrice = _cuponPrice;\r\n    }\r\n    \r\n    function multiply(uint x, uint y) internal pure returns (uint z) {\r\n        require(y == 0 || (z = x * y) / y == x, \"Invalid multiply params\");\r\n    }\r\n\r\n    function buyCupons(uint256 _numberOfCupons) public payable {\r\n        require(msg.value == multiply(_numberOfCupons, cuponPrice), \"\");\r\n\r\n        cuponsSold += _numberOfCupons;\r\n\r\n        emit Sell(msg.sender, _numberOfCupons);\r\n    }\r\n}\r\n\r\n",
  "sourcePath": "C:\\Users\\straggler\\projects\\etherPowerBall\\contracts\\EtherPowerBallBase.sol",
  "compiler": {
    "name": "solc",
    "version": "0.4.24+commit.e67f0147.Emscripten.clang"
  },
  "schemaVersion": "2.0.1",
  "updatedAt": "2018-10-09T20:41:50.455Z"
}