{
  "contractName": "EtherPowerBallBase",
  "abi": [
    {
      "constant": true,
      "inputs": [
        {
          "name": "",
          "type": "uint256"
        }
      ],
      "name": "cupons",
      "outputs": [
        {
          "name": "id",
          "type": "uint256"
        }
      ],
      "payable": false,
      "stateMutability": "view",
      "type": "function"
    },
    {
      "constant": true,
      "inputs": [
        {
          "name": "",
          "type": "address"
        }
      ],
      "name": "buyers",
      "outputs": [
        {
          "name": "numberOfCupons",
          "type": "uint256"
        }
      ],
      "payable": false,
      "stateMutability": "view",
      "type": "function"
    },
    {
      "constant": true,
      "inputs": [],
      "name": "cuponPrice",
      "outputs": [
        {
          "name": "",
          "type": "uint256"
        }
      ],
      "payable": false,
      "stateMutability": "view",
      "type": "function"
    },
    {
      "constant": true,
      "inputs": [],
      "name": "cuponsCount",
      "outputs": [
        {
          "name": "",
          "type": "uint256"
        }
      ],
      "payable": false,
      "stateMutability": "view",
      "type": "function"
    },
    {
      "constant": true,
      "inputs": [],
      "name": "cuponsSold",
      "outputs": [
        {
          "name": "",
          "type": "uint256"
        }
      ],
      "payable": false,
      "stateMutability": "view",
      "type": "function"
    },
    {
      "inputs": [
        {
          "name": "_cuponPrice",
          "type": "uint256"
        }
      ],
      "payable": false,
      "stateMutability": "nonpayable",
      "type": "constructor"
    },
    {
      "anonymous": false,
      "inputs": [
        {
          "indexed": false,
          "name": "_buyer",
          "type": "address"
        },
        {
          "indexed": false,
          "name": "_amount",
          "type": "uint256"
        }
      ],
      "name": "Sell",
      "type": "event"
    },
    {
      "constant": false,
      "inputs": [
        {
          "name": "_numberOfCupons",
          "type": "uint256"
        }
      ],
      "name": "buyCupons",
      "outputs": [],
      "payable": true,
      "stateMutability": "payable",
      "type": "function"
    }
  ],
  "bytecode": "0x608060405234801561001057600080fd5b5060405160208061072783398101806040528101908080519060200190929190505050336000806101000a81548173ffffffffffffffffffffffffffffffffffffffff021916908373ffffffffffffffffffffffffffffffffffffffff160217905550806001819055505061069d8061008a6000396000f300608060405260043610610078576000357c0100000000000000000000000000000000000000000000000000000000900463ffffffff1680638b0a3be81461007d578063939b9b0d146100be57806397a993aa146100de578063ee26c60214610135578063f12ee59314610160578063f9f52f641461018b575b600080fd5b34801561008957600080fd5b506100a8600480360381019080803590602001909291905050506101b6565b6040518082815260200191505060405180910390f35b6100dc600480360381019080803590602001909291905050506101d4565b005b3480156100ea57600080fd5b5061011f600480360381019080803573ffffffffffffffffffffffffffffffffffffffff1690602001909291905050506103cd565b6040518082815260200191505060405180910390f35b34801561014157600080fd5b5061014a6103eb565b6040518082815260200191505060405180910390f35b34801561016c57600080fd5b506101756103f1565b6040518082815260200191505060405180910390f35b34801561019757600080fd5b506101a06103f7565b6040518082815260200191505060405180910390f35b60036020528060005260406000206000915090508060000154905081565b6101e0816001546103fd565b34141515610231576040517f08c379a0000000000000000000000000000000000000000000000000000000008152600401808060200182810382526000815260200160200191505060405180910390fd5b61034f81600560003373ffffffffffffffffffffffffffffffffffffffff1673ffffffffffffffffffffffffffffffffffffffff1681526020019081526020016000206040805190810160405290816000820154815260200160018201805480602002602001604051908101604052809291908181526020016000905b828210156103425783829060005260206000209060020201604080519081016040529081600082015481526020016001820180548060200260200160405190810160405280929190818152602001828054801561032a57602002820191906000526020600020905b815481526020019060010190808311610316575b505050505081525050815260200190600101906102ae565b5050505081525050610496565b806002600082825401925050819055507f5e5e995ce3133561afceaa51a9a154d5db228cd7525d34df5185582c18d3df093382604051808373ffffffffffffffffffffffffffffffffffffffff1673ffffffffffffffffffffffffffffffffffffffff1681526020018281526020019250505060405180910390a150565b60056020528060005260406000206000915090508060000154905081565b60015481565b60045481565b60025481565b60008082148061041c5750828283850292508281151561041957fe5b04145b1515610490576040517f08c379a00000000000000000000000000000000000000000000000000000000081526004018080602001828103825260178152602001807f496e76616c6964206d756c7469706c7920706172616d7300000000000000000081525060200191505060405180910390fd5b92915050565b60008090505b828110156104c2576104b5826104b06104c7565b6105a3565b808060010191505061049c565b505050565b6104cf6105e5565b6060600060076040519080825280602002602001820160405280156105035781602001602082028038833980820191505090505b509150600090505b60078110156105455761051c6105dc565b828281518110151561052a57fe5b9060200190602002018181525050808060010191505061050b565b604080519081016040528060045481526020018381525092508260036000600454815260200190815260200160002060008201518160000155602082015181600101908051906020019061059a9291906105ff565b50905050505090565b600182600001818151019150818152505080826020015183600001518151811015156105cb57fe5b906020019060200201819052505050565b60006005905090565b604080519081016040528060008152602001606081525090565b82805482825590600052602060002090810192821561063b579160200282015b8281111561063a57825182559160200191906001019061061f565b5b509050610648919061064c565b5090565b61066e91905b8082111561066a576000816000905550600101610652565b5090565b905600a165627a7a72305820618f8ae0bedb8905bf15c1f2c541dca80b59a5aaea480c15e9f7074c09cadc740029",
  "source": "pragma solidity ^0.4.23;\r\n\r\ncontract EtherPowerBallBase {\r\n    address admin;\r\n    uint256 public cuponPrice;\r\n    uint256 public cuponsSold;\r\n\r\n    event Sell(address _buyer, uint256 _amount);\r\n\r\n    constructor(uint256 _cuponPrice) public {\r\n        admin = msg.sender;\r\n        cuponPrice = _cuponPrice;\r\n    }\r\n    \r\n    struct Cupon {\r\n        uint id;\r\n        uint[] numbers;\r\n    }\r\n\r\n    struct Buyer {\r\n        uint numberOfCupons;\r\n        Cupon[] cupons;\r\n    }\r\n\r\n    mapping(uint => Cupon) public cupons;\r\n    uint public cuponsCount;\r\n    mapping(address => Buyer) public buyers;\r\n\r\n\r\n    function multiply(uint x, uint y) internal pure returns (uint z) {\r\n        require(y == 0 || (z = x * y) / y == x, \"Invalid multiply params\");\r\n    }\r\n\r\n    function buyCupons(uint256 _numberOfCupons) public payable {\r\n        require(msg.value == multiply(_numberOfCupons, cuponPrice), \"\");\r\n        generateCuponsForBuyer(_numberOfCupons, buyers[msg.sender]);\r\n        \r\n        cuponsSold += _numberOfCupons;\r\n\r\n        emit Sell(msg.sender, _numberOfCupons);\r\n    }\r\n\r\n    function generateCuponsForBuyer(uint _numberOfCupons, Buyer _buyer) private {\r\n        for (uint i = 0; i < _numberOfCupons; i++) {\r\n            addCuponToBuyer(_buyer, generateSingleCupon());\r\n        }\r\n    }\r\n\r\n    function addCuponToBuyer(Buyer _buyer, Cupon _cupon) private pure {\r\n        _buyer.numberOfCupons += 1;\r\n        _buyer.cupons[_buyer.numberOfCupons] = _cupon;\r\n    }\r\n\r\n    function generateSingleCupon() private returns (Cupon _cupon) {\r\n        uint[] memory numbers = new uint[](7);\r\n        for(uint i = 0; i < 7; i++) {\r\n            numbers[i] = randomNumber();\r\n        }\r\n        _cupon = Cupon(cuponsCount, numbers);\r\n        cupons[cuponsCount] = _cupon;\r\n    }\r\n\r\n    function randomNumber() private pure returns(uint) {\r\n        return 5;\r\n    }\r\n}\r\n\r\n",
  "sourcePath": "C:\\Users\\straggler\\projects\\etherPowerBall\\contracts\\EtherPowerBallBase.sol",
  "compiler": {
    "name": "solc",
    "version": "0.4.24+commit.e67f0147.Emscripten.clang"
  },
  "schemaVersion": "2.0.1",
  "updatedAt": "2018-10-09T23:33:20.145Z"
}