{
  "contractName": "EtherPowerBallBase",
  "abi": [
    {
      "constant": true,
      "inputs": [
        {
          "name": "",
          "type": "uint256"
        }
      ],
      "name": "cupons",
      "outputs": [
        {
          "name": "id",
          "type": "uint256"
        }
      ],
      "payable": false,
      "stateMutability": "view",
      "type": "function"
    },
    {
      "constant": true,
      "inputs": [
        {
          "name": "",
          "type": "address"
        }
      ],
      "name": "buyers",
      "outputs": [
        {
          "name": "numberOfCupons",
          "type": "uint256"
        }
      ],
      "payable": false,
      "stateMutability": "view",
      "type": "function"
    },
    {
      "constant": true,
      "inputs": [],
      "name": "cuponPrice",
      "outputs": [
        {
          "name": "",
          "type": "uint256"
        }
      ],
      "payable": false,
      "stateMutability": "view",
      "type": "function"
    },
    {
      "constant": true,
      "inputs": [],
      "name": "cuponsCount",
      "outputs": [
        {
          "name": "",
          "type": "uint256"
        }
      ],
      "payable": false,
      "stateMutability": "view",
      "type": "function"
    },
    {
      "constant": true,
      "inputs": [],
      "name": "cuponsSold",
      "outputs": [
        {
          "name": "",
          "type": "uint256"
        }
      ],
      "payable": false,
      "stateMutability": "view",
      "type": "function"
    },
    {
      "inputs": [
        {
          "name": "_cuponPrice",
          "type": "uint256"
        }
      ],
      "payable": false,
      "stateMutability": "nonpayable",
      "type": "constructor"
    },
    {
      "anonymous": false,
      "inputs": [
        {
          "indexed": false,
          "name": "_buyer",
          "type": "address"
        },
        {
          "indexed": false,
          "name": "_amount",
          "type": "uint256"
        }
      ],
      "name": "Sell",
      "type": "event"
    },
    {
      "constant": false,
      "inputs": [
        {
          "name": "_numberOfCupons",
          "type": "uint256"
        }
      ],
      "name": "buyCupons",
      "outputs": [],
      "payable": true,
      "stateMutability": "payable",
      "type": "function"
    }
  ],
  "bytecode": "0x608060405234801561001057600080fd5b506040516020806107d183398101806040528101908080519060200190929190505050336000806101000a81548173ffffffffffffffffffffffffffffffffffffffff021916908373ffffffffffffffffffffffffffffffffffffffff16021790555080600181905550506107478061008a6000396000f300608060405260043610610078576000357c0100000000000000000000000000000000000000000000000000000000900463ffffffff1680638b0a3be81461007d578063939b9b0d146100be57806397a993aa146100de578063ee26c60214610135578063f12ee59314610160578063f9f52f641461018b575b600080fd5b34801561008957600080fd5b506100a8600480360381019080803590602001909291905050506101b6565b6040518082815260200191505060405180910390f35b6100dc600480360381019080803590602001909291905050506101d4565b005b3480156100ea57600080fd5b5061011f600480360381019080803573ffffffffffffffffffffffffffffffffffffffff16906020019092919050505061031d565b6040518082815260200191505060405180910390f35b34801561014157600080fd5b5061014a61033b565b6040518082815260200191505060405180910390f35b34801561016c57600080fd5b50610175610341565b6040518082815260200191505060405180910390f35b34801561019757600080fd5b506101a0610347565b6040518082815260200191505060405180910390f35b60036020528060005260406000206000915090508060000154905081565b6101e08160015461034d565b34141515610231576040517f08c379a0000000000000000000000000000000000000000000000000000000008152600401808060200182810382526000815260200160200191505060405180910390fd5b600560003373ffffffffffffffffffffffffffffffffffffffff1673ffffffffffffffffffffffffffffffffffffffff168152602001908152602001600020600660008201548160000155600182018160010190805461029292919061056c565b5090505061029f816103e6565b806002600082825401925050819055507f5e5e995ce3133561afceaa51a9a154d5db228cd7525d34df5185582c18d3df093382604051808373ffffffffffffffffffffffffffffffffffffffff1673ffffffffffffffffffffffffffffffffffffffff1681526020018281526020019250505060405180910390a150565b60056020528060005260406000206000915090508060000154905081565b60015481565b60045481565b60025481565b60008082148061036c5750828283850292508281151561036957fe5b04145b15156103e0576040517f08c379a00000000000000000000000000000000000000000000000000000000081526004018080602001828103825260178152602001807f496e76616c6964206d756c7469706c7920706172616d7300000000000000000081525060200191505060405180910390fd5b92915050565b60008090505b81811015610411576104046103ff610415565b6104f1565b80806001019150506103ec565b5050565b61041d6105e5565b6060600060076040519080825280602002602001820160405280156104515781602001602082028038833980820191505090505b509150600090505b60078110156104935761046a610563565b828281518110151561047857fe5b90602001906020020181815250508080600101915050610459565b60408051908101604052806004548152602001838152509250826003600060045481526020019081526020016000206000820151816000015560208201518160010190805190602001906104e89291906105ff565b50905050505090565b60016006600001600082825401925050819055506006600101819080600181540180825580915050906001820390600052602060002090600202016000909192909190915060008201518160000155602082015181600101908051906020019061055c9291906105ff565b5050505050565b60006005905090565b8280548282559060005260206000209060020281019282156105d45760005260206000209160020282015b828111156105d35782826000820154816000015560018201816001019080546105c192919061064c565b50505091600201919060020190610597565b5b5090506105e1919061069e565b5090565b604080519081016040528060008152602001606081525090565b82805482825590600052602060002090810192821561063b579160200282015b8281111561063a57825182559160200191906001019061061f565b5b50905061064891906106d5565b5090565b82805482825590600052602060002090810192821561068d5760005260206000209182015b8281111561068c578254825591600101919060010190610671565b5b50905061069a91906106d5565b5090565b6106d291905b808211156106ce576000808201600090556001820160006106c591906106fa565b506002016106a4565b5090565b90565b6106f791905b808211156106f35760008160009055506001016106db565b5090565b90565b508054600082559060005260206000209081019061071891906106d5565b505600a165627a7a72305820929d571f30f0a790d2cf1dfa2110db6c62f2041f977aa70098945bc37209f85f0029",
  "source": "pragma solidity ^0.4.23;\r\n\r\ncontract EtherPowerBallBase {\r\n    address admin;\r\n    uint256 public cuponPrice;\r\n    uint256 public cuponsSold;\r\n\r\n    event Sell(address _buyer, uint256 _amount);\r\n\r\n    constructor(uint256 _cuponPrice) public {\r\n        admin = msg.sender;\r\n        cuponPrice = _cuponPrice;\r\n    }\r\n    \r\n    struct Cupon {\r\n        uint id;\r\n        uint[] numbers;\r\n    }\r\n\r\n    struct Buyer {\r\n        uint numberOfCupons;\r\n        Cupon[] cupons;\r\n    }\r\n\r\n    mapping(uint => Cupon) public cupons;\r\n    uint public cuponsCount;\r\n    mapping(address => Buyer) public buyers;\r\n\r\n\r\n    function multiply(uint x, uint y) internal pure returns (uint z) {\r\n        require(y == 0 || (z = x * y) / y == x, \"Invalid multiply params\");\r\n    }\r\n\r\n    Buyer buyer;\r\n    function buyCupons(uint256 _numberOfCupons) public payable {\r\n        require(msg.value == multiply(_numberOfCupons, cuponPrice), \"\");\r\n        buyer = buyers[msg.sender];\r\n        generateCuponsForBuyer(_numberOfCupons);\r\n        \r\n        cuponsSold += _numberOfCupons;\r\n\r\n        emit Sell(msg.sender, _numberOfCupons);\r\n    }\r\n\r\n    function generateCuponsForBuyer(uint _numberOfCupons) private {\r\n        for (uint i = 0; i < _numberOfCupons; i++) {\r\n            addCuponToBuyer(generateSingleCupon());\r\n        }\r\n    }\r\n\r\n    function addCuponToBuyer(Cupon _cupon) internal {\r\n        buyer.numberOfCupons += 1;\r\n        buyer.cupons.push(_cupon);\r\n    }\r\n\r\n    function generateSingleCupon() private returns (Cupon _cupon) {\r\n        uint[] memory numbers = new uint[](7);\r\n        for(uint i = 0; i < 7; i++) {\r\n            numbers[i] = randomNumber();\r\n        }\r\n        _cupon = Cupon(cuponsCount, numbers);\r\n        cupons[cuponsCount] = _cupon;\r\n    }\r\n\r\n    function randomNumber() private pure returns(uint) {\r\n        return 5;\r\n    }\r\n}\r\n\r\n",
  "sourcePath": "C:\\Users\\straggler\\projects\\etherPowerBall\\contracts\\EtherPowerBallBase.sol",
  "compiler": {
    "name": "solc",
    "version": "0.4.24+commit.e67f0147.Emscripten.clang"
  },
  "schemaVersion": "2.0.1",
  "updatedAt": "2018-12-04T21:50:37.313Z"
}